{
  "contractName": "BuyCoffee",
  "abi": [
    {
      "inputs": [],
      "stateMutability": "nonpayable",
      "type": "constructor"
    },
    {
      "inputs": [
        {
          "internalType": "string",
          "name": "_name",
          "type": "string"
        },
        {
          "internalType": "string",
          "name": "_message",
          "type": "string"
        }
      ],
      "name": "buyCoffee",
      "outputs": [],
      "stateMutability": "payable",
      "type": "function",
      "payable": true
    },
    {
      "inputs": [],
      "name": "getData",
      "outputs": [
        {
          "components": [
            {
              "internalType": "string",
              "name": "name",
              "type": "string"
            },
            {
              "internalType": "string",
              "name": "message",
              "type": "string"
            },
            {
              "internalType": "uint256",
              "name": "timeStamp",
              "type": "uint256"
            },
            {
              "internalType": "address",
              "name": "from",
              "type": "address"
            }
          ],
          "internalType": "struct BuyCoffee.Data[]",
          "name": "",
          "type": "tuple[]"
        }
      ],
      "stateMutability": "view",
      "type": "function",
      "constant": true
    }
  ],
  "bytecode": "0x608060405234801561001057600080fd5b5033600160006101000a81548173ffffffffffffffffffffffffffffffffffffffff021916908373ffffffffffffffffffffffffffffffffffffffff160217905550610e6f806100616000396000f3fe6080604052600436106100295760003560e01c8063204206e11461002e5780633bc5de301461004a575b600080fd5b610048600480360381019061004391906106c1565b610075565b005b34801561005657600080fd5b5061005f610384565b60405161006c919061093e565b60405180910390f35b600034116100b8576040517f08c379a00000000000000000000000000000000000000000000000000000000081526004016100af906109bd565b60405180910390fd5b600160009054906101000a900473ffffffffffffffffffffffffffffffffffffffff1673ffffffffffffffffffffffffffffffffffffffff163373ffffffffffffffffffffffffffffffffffffffff1603610148576040517f08c379a000000000000000000000000000000000000000000000000000000000815260040161013f90610a29565b60405180910390fd5b6000805b6000805490508110156101ed573373ffffffffffffffffffffffffffffffffffffffff166000828154811061018457610183610a49565b5b906000526020600020906004020160030160009054906101000a900473ffffffffffffffffffffffffffffffffffffffff1673ffffffffffffffffffffffffffffffffffffffff16036101da57600191506101ed565b80806101e590610aa7565b91505061014c565b506000151581151514610235576040517f08c379a000000000000000000000000000000000000000000000000000000000815260040161022c90610b3b565b60405180910390fd5b600160009054906101000a900473ffffffffffffffffffffffffffffffffffffffff1673ffffffffffffffffffffffffffffffffffffffff166108fc349081150290604051600060405180830381858888f1935050505015801561029d573d6000803e3d6000fd5b50600060405180608001604052808581526020018481526020014281526020013373ffffffffffffffffffffffffffffffffffffffff16815250908060018154018082558091505060019003906000526020600020906004020160009091909190915060008201518160000190816103159190610d67565b50602082015181600101908161032b9190610d67565b506040820151816002015560608201518160030160006101000a81548173ffffffffffffffffffffffffffffffffffffffff021916908373ffffffffffffffffffffffffffffffffffffffff1602179055505050505050565b60606000805480602002602001604051908101604052809291908181526020016000905b8282101561055e57838290600052602060002090600402016040518060800160405290816000820180546103db90610b8a565b80601f016020809104026020016040519081016040528092919081815260200182805461040790610b8a565b80156104545780601f1061042957610100808354040283529160200191610454565b820191906000526020600020905b81548152906001019060200180831161043757829003601f168201915b5050505050815260200160018201805461046d90610b8a565b80601f016020809104026020016040519081016040528092919081815260200182805461049990610b8a565b80156104e65780601f106104bb576101008083540402835291602001916104e6565b820191906000526020600020905b8154815290600101906020018083116104c957829003601f168201915b50505050508152602001600282015481526020016003820160009054906101000a900473ffffffffffffffffffffffffffffffffffffffff1673ffffffffffffffffffffffffffffffffffffffff1673ffffffffffffffffffffffffffffffffffffffff1681525050815260200190600101906103a8565b50505050905090565b6000604051905090565b600080fd5b600080fd5b600080fd5b600080fd5b6000601f19601f8301169050919050565b7f4e487b7100000000000000000000000000000000000000000000000000000000600052604160045260246000fd5b6105ce82610585565b810181811067ffffffffffffffff821117156105ed576105ec610596565b5b80604052505050565b6000610600610567565b905061060c82826105c5565b919050565b600067ffffffffffffffff82111561062c5761062b610596565b5b61063582610585565b9050602081019050919050565b82818337600083830152505050565b600061066461065f84610611565b6105f6565b9050828152602081018484840111156106805761067f610580565b5b61068b848285610642565b509392505050565b600082601f8301126106a8576106a761057b565b5b81356106b8848260208601610651565b91505092915050565b600080604083850312156106d8576106d7610571565b5b600083013567ffffffffffffffff8111156106f6576106f5610576565b5b61070285828601610693565b925050602083013567ffffffffffffffff81111561072357610722610576565b5b61072f85828601610693565b9150509250929050565b600081519050919050565b600082825260208201905092915050565b6000819050602082019050919050565b600081519050919050565b600082825260208201905092915050565b60005b8381101561079f578082015181840152602081019050610784565b60008484015250505050565b60006107b682610765565b6107c08185610770565b93506107d0818560208601610781565b6107d981610585565b840191505092915050565b6000819050919050565b6107f7816107e4565b82525050565b600073ffffffffffffffffffffffffffffffffffffffff82169050919050565b6000610828826107fd565b9050919050565b6108388161081d565b82525050565b6000608083016000830151848203600086015261085b82826107ab565b9150506020830151848203602086015261087582826107ab565b915050604083015161088a60408601826107ee565b50606083015161089d606086018261082f565b508091505092915050565b60006108b4838361083e565b905092915050565b6000602082019050919050565b60006108d482610739565b6108de8185610744565b9350836020820285016108f085610755565b8060005b8581101561092c578484038952815161090d85826108a8565b9450610918836108bc565b925060208a019950506001810190506108f4565b50829750879550505050505092915050565b6000602082019050818103600083015261095881846108c9565b905092915050565b600082825260208201905092915050565b7f706c656173652073656e642061746c6561737420312065746865720000000000600082015250565b60006109a7601b83610960565b91506109b282610971565b602082019050919050565b600060208201905081810360008301526109d68161099a565b9050919050565b7f6f776e65722063616e7420706172746963697061746500000000000000000000600082015250565b6000610a13601683610960565b9150610a1e826109dd565b602082019050919050565b60006020820190508181036000830152610a4281610a06565b9050919050565b7f4e487b7100000000000000000000000000000000000000000000000000000000600052603260045260246000fd5b7f4e487b7100000000000000000000000000000000000000000000000000000000600052601160045260246000fd5b6000610ab2826107e4565b91507fffffffffffffffffffffffffffffffffffffffffffffffffffffffffffffffff8203610ae457610ae3610a78565b5b600182019050919050565b7f616c726561647920646f6e617465640000000000000000000000000000000000600082015250565b6000610b25600f83610960565b9150610b3082610aef565b602082019050919050565b60006020820190508181036000830152610b5481610b18565b9050919050565b7f4e487b7100000000000000000000000000000000000000000000000000000000600052602260045260246000fd5b60006002820490506001821680610ba257607f821691505b602082108103610bb557610bb4610b5b565b5b50919050565b60008190508160005260206000209050919050565b60006020601f8301049050919050565b600082821b905092915050565b600060088302610c1d7fffffffffffffffffffffffffffffffffffffffffffffffffffffffffffffffff82610be0565b610c278683610be0565b95508019841693508086168417925050509392505050565b6000819050919050565b6000610c64610c5f610c5a846107e4565b610c3f565b6107e4565b9050919050565b6000819050919050565b610c7e83610c49565b610c92610c8a82610c6b565b848454610bed565b825550505050565b600090565b610ca7610c9a565b610cb2818484610c75565b505050565b5b81811015610cd657610ccb600082610c9f565b600181019050610cb8565b5050565b601f821115610d1b57610cec81610bbb565b610cf584610bd0565b81016020851015610d04578190505b610d18610d1085610bd0565b830182610cb7565b50505b505050565b600082821c905092915050565b6000610d3e60001984600802610d20565b1980831691505092915050565b6000610d578383610d2d565b9150826002028217905092915050565b610d7082610765565b67ffffffffffffffff811115610d8957610d88610596565b5b610d938254610b8a565b610d9e828285610cda565b600060209050601f831160018114610dd15760008415610dbf578287015190505b610dc98582610d4b565b865550610e31565b601f198416610ddf86610bbb565b60005b82811015610e0757848901518255600182019150602085019450602081019050610de2565b86831015610e245784890151610e20601f891682610d2d565b8355505b6001600288020188555050505b50505050505056fea264697066735822122052d639755fa6e96d2db328f00d126f9abda70318fe1cccb5fed72b1caef01ed564736f6c63430008120033",
  "immutableReferences": {},
  "source": "// spdx-license-identifier:mit\r\n\r\npragma solidity ^0.8.0;\r\n\r\ncontract BuyCoffee{\r\n    struct Data{\r\n        string name;\r\n        string message;\r\n        uint timeStamp;\r\n        address from;\r\n    }\r\n\r\n    Data[] datas;\r\n    address payable owner;\r\n\r\n    constructor(){\r\n        owner=payable(msg.sender);\r\n    }\r\n\r\n    function buyCoffee(string memory _name, string memory _message) public payable{\r\n        require(msg.value > 0, \"please send atleast 1 ether\");\r\n        require(msg.sender != owner,\"owner cant participate\");\r\n        bool donated = false;\r\n        for(uint i=0; i<datas.length; i++){\r\n            if(datas[i].from ==msg.sender){\r\n                donated=true;\r\n                break;\r\n            }\r\n        }\r\n        require(donated ==false, \"already donated\");\r\n        owner.transfer(msg.value);\r\n        datas.push(Data(_name,_message, block.timestamp, msg.sender));\r\n    }\r\n\r\n    function getData()public view returns(Data[]memory){\r\n        return datas;\r\n    }\r\n\r\n\r\n}",
  "sourcePath": "C:\\Users\\HP\\PycharmProjects\\pythonProject\\pythonProject\\pythonProject\\reactProject\\coffee-dapp\\contracts\\BuyCoffee.sol",
  "compiler": {
    "name": "solc",
    "version": "0.8.18+commit.87f61d96.Emscripten.clang"
  },
  "schemaVersion": "3.4.12",
  "updatedAt": "2023-02-27T14:59:39.263Z",
  "networkType": "ethereum",
  "devdoc": {
    "kind": "dev",
    "methods": {},
    "version": 1
  },
  "userdoc": {
    "kind": "user",
    "methods": {},
    "version": 1
  }
}